{
  "_format": "hh3-artifact-1",
  "contractName": "NFTSecretMint",
  "sourceName": "contracts/NFTSecretMint.sol",
  "abi": [
    {
      "inputs": [
        {
          "internalType": "string",
          "name": "name",
          "type": "string"
        },
        {
          "internalType": "string",
          "name": "symbol",
          "type": "string"
        },
        {
          "internalType": "address",
          "name": "initialOwner",
          "type": "address"
        }
      ],
      "stateMutability": "nonpayable",
      "type": "constructor"
    },
    {
      "inputs": [],
      "name": "CommitmentExpired",
      "type": "error"
    },
    {
      "inputs": [],
      "name": "CommitmentTooEarly",
      "type": "error"
    },
    {
      "inputs": [
        {
          "internalType": "address",
          "name": "sender",
          "type": "address"
        },
        {
          "internalType": "uint256",
          "name": "tokenId",
          "type": "uint256"
        },
        {
          "internalType": "address",
          "name": "owner",
          "type": "address"
        }
      ],
      "name": "ERC721IncorrectOwner",
      "type": "error"
    },
    {
      "inputs": [
        {
          "internalType": "address",
          "name": "operator",
          "type": "address"
        },
        {
          "internalType": "uint256",
          "name": "tokenId",
          "type": "uint256"
        }
      ],
      "name": "ERC721InsufficientApproval",
      "type": "error"
    },
    {
      "inputs": [
        {
          "internalType": "address",
          "name": "approver",
          "type": "address"
        }
      ],
      "name": "ERC721InvalidApprover",
      "type": "error"
    },
    {
      "inputs": [
        {
          "internalType": "address",
          "name": "operator",
          "type": "address"
        }
      ],
      "name": "ERC721InvalidOperator",
      "type": "error"
    },
    {
      "inputs": [
        {
          "internalType": "address",
          "name": "owner",
          "type": "address"
        }
      ],
      "name": "ERC721InvalidOwner",
      "type": "error"
    },
    {
      "inputs": [
        {
          "internalType": "address",
          "name": "receiver",
          "type": "address"
        }
      ],
      "name": "ERC721InvalidReceiver",
      "type": "error"
    },
    {
      "inputs": [
        {
          "internalType": "address",
          "name": "sender",
          "type": "address"
        }
      ],
      "name": "ERC721InvalidSender",
      "type": "error"
    },
    {
      "inputs": [
        {
          "internalType": "uint256",
          "name": "tokenId",
          "type": "uint256"
        }
      ],
      "name": "ERC721NonexistentToken",
      "type": "error"
    },
    {
      "inputs": [],
      "name": "EnforcedPause",
      "type": "error"
    },
    {
      "inputs": [],
      "name": "ExpectedPause",
      "type": "error"
    },
    {
      "inputs": [],
      "name": "HashAlreadyUsed",
      "type": "error"
    },
    {
      "inputs": [],
      "name": "InvalidCommitment",
      "type": "error"
    },
    {
      "inputs": [],
      "name": "InvalidPrice",
      "type": "error"
    },
    {
      "inputs": [],
      "name": "InvalidSecret",
      "type": "error"
    },
    {
      "inputs": [
        {
          "internalType": "address",
          "name": "owner",
          "type": "address"
        }
      ],
      "name": "OwnableInvalidOwner",
      "type": "error"
    },
    {
      "inputs": [
        {
          "internalType": "address",
          "name": "account",
          "type": "address"
        }
      ],
      "name": "OwnableUnauthorizedAccount",
      "type": "error"
    },
    {
      "inputs": [],
      "name": "PaymentFailed",
      "type": "error"
    },
    {
      "inputs": [],
      "name": "ReentrancyGuardReentrantCall",
      "type": "error"
    },
    {
      "inputs": [],
      "name": "SecretAlreadyRevealed",
      "type": "error"
    },
    {
      "inputs": [],
      "name": "TokenAlreadyCommitted",
      "type": "error"
    },
    {
      "inputs": [],
      "name": "TokenDoesNotExist",
      "type": "error"
    },
    {
      "inputs": [],
      "name": "UnauthorizedCaller",
      "type": "error"
    },
    {
      "anonymous": false,
      "inputs": [
        {
          "indexed": true,
          "internalType": "address",
          "name": "owner",
          "type": "address"
        },
        {
          "indexed": true,
          "internalType": "address",
          "name": "approved",
          "type": "address"
        },
        {
          "indexed": true,
          "internalType": "uint256",
          "name": "tokenId",
          "type": "uint256"
        }
      ],
      "name": "Approval",
      "type": "event"
    },
    {
      "anonymous": false,
      "inputs": [
        {
          "indexed": true,
          "internalType": "address",
          "name": "owner",
          "type": "address"
        },
        {
          "indexed": true,
          "internalType": "address",
          "name": "operator",
          "type": "address"
        },
        {
          "indexed": false,
          "internalType": "bool",
          "name": "approved",
          "type": "bool"
        }
      ],
      "name": "ApprovalForAll",
      "type": "event"
    },
    {
      "anonymous": false,
      "inputs": [
        {
          "indexed": false,
          "internalType": "uint256",
          "name": "_fromTokenId",
          "type": "uint256"
        },
        {
          "indexed": false,
          "internalType": "uint256",
          "name": "_toTokenId",
          "type": "uint256"
        }
      ],
      "name": "BatchMetadataUpdate",
      "type": "event"
    },
    {
      "anonymous": false,
      "inputs": [
        {
          "indexed": true,
          "internalType": "uint256",
          "name": "tokenId",
          "type": "uint256"
        },
        {
          "indexed": true,
          "internalType": "bytes32",
          "name": "secretHash",
          "type": "bytes32"
        },
        {
          "indexed": true,
          "internalType": "address",
          "name": "seller",
          "type": "address"
        }
      ],
      "name": "CommitmentCancelled",
      "type": "event"
    },
    {
      "anonymous": false,
      "inputs": [
        {
          "indexed": true,
          "internalType": "uint256",
          "name": "tokenId",
          "type": "uint256"
        },
        {
          "indexed": true,
          "internalType": "bytes32",
          "name": "secretHash",
          "type": "bytes32"
        },
        {
          "indexed": true,
          "internalType": "address",
          "name": "seller",
          "type": "address"
        },
        {
          "indexed": false,
          "internalType": "address",
          "name": "buyer",
          "type": "address"
        },
        {
          "indexed": false,
          "internalType": "uint256",
          "name": "price",
          "type": "uint256"
        },
        {
          "indexed": false,
          "internalType": "string",
          "name": "metadataURI",
          "type": "string"
        }
      ],
      "name": "CommitmentCreated",
      "type": "event"
    },
    {
      "anonymous": false,
      "inputs": [
        {
          "indexed": false,
          "internalType": "uint256",
          "name": "_tokenId",
          "type": "uint256"
        }
      ],
      "name": "MetadataUpdate",
      "type": "event"
    },
    {
      "anonymous": false,
      "inputs": [
        {
          "indexed": true,
          "internalType": "uint256",
          "name": "tokenId",
          "type": "uint256"
        },
        {
          "indexed": true,
          "internalType": "address",
          "name": "to",
          "type": "address"
        },
        {
          "indexed": false,
          "internalType": "bytes32",
          "name": "secret",
          "type": "bytes32"
        }
      ],
      "name": "NFTMinted",
      "type": "event"
    },
    {
      "anonymous": false,
      "inputs": [
        {
          "indexed": true,
          "internalType": "address",
          "name": "previousOwner",
          "type": "address"
        },
        {
          "indexed": true,
          "internalType": "address",
          "name": "newOwner",
          "type": "address"
        }
      ],
      "name": "OwnershipTransferred",
      "type": "event"
    },
    {
      "anonymous": false,
      "inputs": [
        {
          "indexed": false,
          "internalType": "address",
          "name": "account",
          "type": "address"
        }
      ],
      "name": "Paused",
      "type": "event"
    },
    {
      "anonymous": false,
      "inputs": [
        {
          "indexed": true,
          "internalType": "uint256",
          "name": "tokenId",
          "type": "uint256"
        },
        {
          "indexed": true,
          "internalType": "bytes32",
          "name": "secretHash",
          "type": "bytes32"
        },
        {
          "indexed": false,
          "internalType": "bytes32",
          "name": "secret",
          "type": "bytes32"
        },
        {
          "indexed": true,
          "internalType": "address",
          "name": "revealer",
          "type": "address"
        }
      ],
      "name": "SecretRevealed",
      "type": "event"
    },
    {
      "anonymous": false,
      "inputs": [
        {
          "indexed": true,
          "internalType": "address",
          "name": "from",
          "type": "address"
        },
        {
          "indexed": true,
          "internalType": "address",
          "name": "to",
          "type": "address"
        },
        {
          "indexed": true,
          "internalType": "uint256",
          "name": "tokenId",
          "type": "uint256"
        }
      ],
      "name": "Transfer",
      "type": "event"
    },
    {
      "anonymous": false,
      "inputs": [
        {
          "indexed": false,
          "internalType": "address",
          "name": "account",
          "type": "address"
        }
      ],
      "name": "Unpaused",
      "type": "event"
    },
    {
      "inputs": [],
      "name": "COMMITMENT_TIMEOUT",
      "outputs": [
        {
          "internalType": "uint256",
          "name": "",
          "type": "uint256"
        }
      ],
      "stateMutability": "view",
      "type": "function"
    },
    {
      "inputs": [],
      "name": "MIN_COMMITMENT_TIME",
      "outputs": [
        {
          "internalType": "uint256",
          "name": "",
          "type": "uint256"
        }
      ],
      "stateMutability": "view",
      "type": "function"
    },
    {
      "inputs": [
        {
          "internalType": "address",
          "name": "to",
          "type": "address"
        },
        {
          "internalType": "uint256",
          "name": "tokenId",
          "type": "uint256"
        }
      ],
      "name": "approve",
      "outputs": [],
      "stateMutability": "nonpayable",
      "type": "function"
    },
    {
      "inputs": [
        {
          "internalType": "address",
          "name": "owner",
          "type": "address"
        }
      ],
      "name": "balanceOf",
      "outputs": [
        {
          "internalType": "uint256",
          "name": "",
          "type": "uint256"
        }
      ],
      "stateMutability": "view",
      "type": "function"
    },
    {
      "inputs": [
        {
          "internalType": "uint256",
          "name": "tokenId",
          "type": "uint256"
        }
      ],
      "name": "canMintNow",
      "outputs": [
        {
          "internalType": "bool",
          "name": "",
          "type": "bool"
        }
      ],
      "stateMutability": "view",
      "type": "function"
    },
    {
      "inputs": [
        {
          "internalType": "uint256",
          "name": "tokenId",
          "type": "uint256"
        }
      ],
      "name": "cancelCommitment",
      "outputs": [],
      "stateMutability": "nonpayable",
      "type": "function"
    },
    {
      "inputs": [
        {
          "internalType": "bytes32",
          "name": "secretHash",
          "type": "bytes32"
        },
        {
          "internalType": "uint256",
          "name": "tokenId",
          "type": "uint256"
        },
        {
          "internalType": "uint256",
          "name": "price",
          "type": "uint256"
        },
        {
          "internalType": "address",
          "name": "buyer",
          "type": "address"
        },
        {
          "internalType": "string",
          "name": "metadataURI",
          "type": "string"
        }
      ],
      "name": "commitForMint",
      "outputs": [],
      "stateMutability": "nonpayable",
      "type": "function"
    },
    {
      "inputs": [
        {
          "internalType": "uint256",
          "name": "",
          "type": "uint256"
        }
      ],
      "name": "commitments",
      "outputs": [
        {
          "internalType": "bytes32",
          "name": "secretHash",
          "type": "bytes32"
        },
        {
          "internalType": "address",
          "name": "seller",
          "type": "address"
        },
        {
          "internalType": "address",
          "name": "buyer",
          "type": "address"
        },
        {
          "internalType": "uint256",
          "name": "price",
          "type": "uint256"
        },
        {
          "internalType": "uint256",
          "name": "commitTime",
          "type": "uint256"
        },
        {
          "internalType": "bool",
          "name": "isActive",
          "type": "bool"
        },
        {
          "internalType": "string",
          "name": "tokenURI",
          "type": "string"
        }
      ],
      "stateMutability": "view",
      "type": "function"
    },
    {
      "inputs": [
        {
          "internalType": "uint256",
          "name": "tokenId",
          "type": "uint256"
        }
      ],
      "name": "getApproved",
      "outputs": [
        {
          "internalType": "address",
          "name": "",
          "type": "address"
        }
      ],
      "stateMutability": "view",
      "type": "function"
    },
    {
      "inputs": [
        {
          "internalType": "uint256",
          "name": "tokenId",
          "type": "uint256"
        }
      ],
      "name": "getCommitment",
      "outputs": [
        {
          "components": [
            {
              "internalType": "bytes32",
              "name": "secretHash",
              "type": "bytes32"
            },
            {
              "internalType": "address",
              "name": "seller",
              "type": "address"
            },
            {
              "internalType": "address",
              "name": "buyer",
              "type": "address"
            },
            {
              "internalType": "uint256",
              "name": "price",
              "type": "uint256"
            },
            {
              "internalType": "uint256",
              "name": "commitTime",
              "type": "uint256"
            },
            {
              "internalType": "bool",
              "name": "isActive",
              "type": "bool"
            },
            {
              "internalType": "string",
              "name": "tokenURI",
              "type": "string"
            }
          ],
          "internalType": "struct NFTSecretMint.MintCommitment",
          "name": "",
          "type": "tuple"
        }
      ],
      "stateMutability": "view",
      "type": "function"
    },
    {
      "inputs": [
        {
          "internalType": "bytes32",
          "name": "",
          "type": "bytes32"
        }
      ],
      "name": "hashToTokenId",
      "outputs": [
        {
          "internalType": "uint256",
          "name": "",
          "type": "uint256"
        }
      ],
      "stateMutability": "view",
      "type": "function"
    },
    {
      "inputs": [
        {
          "internalType": "address",
          "name": "owner",
          "type": "address"
        },
        {
          "internalType": "address",
          "name": "operator",
          "type": "address"
        }
      ],
      "name": "isApprovedForAll",
      "outputs": [
        {
          "internalType": "bool",
          "name": "",
          "type": "bool"
        }
      ],
      "stateMutability": "view",
      "type": "function"
    },
    {
      "inputs": [
        {
          "internalType": "uint256",
          "name": "tokenId",
          "type": "uint256"
        }
      ],
      "name": "isCommitmentValid",
      "outputs": [
        {
          "internalType": "bool",
          "name": "",
          "type": "bool"
        }
      ],
      "stateMutability": "view",
      "type": "function"
    },
    {
      "inputs": [
        {
          "internalType": "bytes32",
          "name": "secret",
          "type": "bytes32"
        },
        {
          "internalType": "uint256",
          "name": "tokenId",
          "type": "uint256"
        }
      ],
      "name": "mintWithSecret",
      "outputs": [],
      "stateMutability": "payable",
      "type": "function"
    },
    {
      "inputs": [],
      "name": "name",
      "outputs": [
        {
          "internalType": "string",
          "name": "",
          "type": "string"
        }
      ],
      "stateMutability": "view",
      "type": "function"
    },
    {
      "inputs": [],
      "name": "owner",
      "outputs": [
        {
          "internalType": "address",
          "name": "",
          "type": "address"
        }
      ],
      "stateMutability": "view",
      "type": "function"
    },
    {
      "inputs": [
        {
          "internalType": "uint256",
          "name": "tokenId",
          "type": "uint256"
        }
      ],
      "name": "ownerOf",
      "outputs": [
        {
          "internalType": "address",
          "name": "",
          "type": "address"
        }
      ],
      "stateMutability": "view",
      "type": "function"
    },
    {
      "inputs": [],
      "name": "pause",
      "outputs": [],
      "stateMutability": "nonpayable",
      "type": "function"
    },
    {
      "inputs": [],
      "name": "paused",
      "outputs": [
        {
          "internalType": "bool",
          "name": "",
          "type": "bool"
        }
      ],
      "stateMutability": "view",
      "type": "function"
    },
    {
      "inputs": [],
      "name": "renounceOwnership",
      "outputs": [],
      "stateMutability": "nonpayable",
      "type": "function"
    },
    {
      "inputs": [
        {
          "internalType": "bytes32",
          "name": "",
          "type": "bytes32"
        }
      ],
      "name": "revealedSecrets",
      "outputs": [
        {
          "internalType": "bool",
          "name": "",
          "type": "bool"
        }
      ],
      "stateMutability": "view",
      "type": "function"
    },
    {
      "inputs": [
        {
          "internalType": "address",
          "name": "from",
          "type": "address"
        },
        {
          "internalType": "address",
          "name": "to",
          "type": "address"
        },
        {
          "internalType": "uint256",
          "name": "tokenId",
          "type": "uint256"
        }
      ],
      "name": "safeTransferFrom",
      "outputs": [],
      "stateMutability": "nonpayable",
      "type": "function"
    },
    {
      "inputs": [
        {
          "internalType": "address",
          "name": "from",
          "type": "address"
        },
        {
          "internalType": "address",
          "name": "to",
          "type": "address"
        },
        {
          "internalType": "uint256",
          "name": "tokenId",
          "type": "uint256"
        },
        {
          "internalType": "bytes",
          "name": "data",
          "type": "bytes"
        }
      ],
      "name": "safeTransferFrom",
      "outputs": [],
      "stateMutability": "nonpayable",
      "type": "function"
    },
    {
      "inputs": [
        {
          "internalType": "address",
          "name": "operator",
          "type": "address"
        },
        {
          "internalType": "bool",
          "name": "approved",
          "type": "bool"
        }
      ],
      "name": "setApprovalForAll",
      "outputs": [],
      "stateMutability": "nonpayable",
      "type": "function"
    },
    {
      "inputs": [
        {
          "internalType": "bytes4",
          "name": "interfaceId",
          "type": "bytes4"
        }
      ],
      "name": "supportsInterface",
      "outputs": [
        {
          "internalType": "bool",
          "name": "",
          "type": "bool"
        }
      ],
      "stateMutability": "view",
      "type": "function"
    },
    {
      "inputs": [],
      "name": "symbol",
      "outputs": [
        {
          "internalType": "string",
          "name": "",
          "type": "string"
        }
      ],
      "stateMutability": "view",
      "type": "function"
    },
    {
      "inputs": [
        {
          "internalType": "uint256",
          "name": "tokenId",
          "type": "uint256"
        }
      ],
      "name": "tokenURI",
      "outputs": [
        {
          "internalType": "string",
          "name": "",
          "type": "string"
        }
      ],
      "stateMutability": "view",
      "type": "function"
    },
    {
      "inputs": [
        {
          "internalType": "address",
          "name": "from",
          "type": "address"
        },
        {
          "internalType": "address",
          "name": "to",
          "type": "address"
        },
        {
          "internalType": "uint256",
          "name": "tokenId",
          "type": "uint256"
        }
      ],
      "name": "transferFrom",
      "outputs": [],
      "stateMutability": "nonpayable",
      "type": "function"
    },
    {
      "inputs": [
        {
          "internalType": "address",
          "name": "newOwner",
          "type": "address"
        }
      ],
      "name": "transferOwnership",
      "outputs": [],
      "stateMutability": "nonpayable",
      "type": "function"
    },
    {
      "inputs": [],
      "name": "unpause",
      "outputs": [],
      "stateMutability": "nonpayable",
      "type": "function"
    },
    {
      "inputs": [],
      "name": "withdraw",
      "outputs": [],
      "stateMutability": "nonpayable",
      "type": "function"
    }
  ],
  "bytecode": "0x608060405234801561000f575f5ffd5b506040516146663803806146668339818101604052810190610031919061034f565b808383815f908161004291906105e7565b50806001908161005291906105e7565b5050505f73ffffffffffffffffffffffffffffffffffffffff168173ffffffffffffffffffffffffffffffffffffffff16036100c5575f6040517f1e4fbdf70000000000000000000000000000000000000000000000000000000081526004016100bc91906106c5565b60405180910390fd5b6100d4816100e560201b60201c565b5060016008819055505050506106de565b5f60075f9054906101000a900473ffffffffffffffffffffffffffffffffffffffff1690508160075f6101000a81548173ffffffffffffffffffffffffffffffffffffffff021916908373ffffffffffffffffffffffffffffffffffffffff1602179055508173ffffffffffffffffffffffffffffffffffffffff168173ffffffffffffffffffffffffffffffffffffffff167f8be0079c531659141344cd1fd0a4f28419497f9722a3daafe3b4186f6b6457e060405160405180910390a35050565b5f604051905090565b5f5ffd5b5f5ffd5b5f5ffd5b5f5ffd5b5f601f19601f8301169050919050565b7f4e487b71000000000000000000000000000000000000000000000000000000005f52604160045260245ffd5b610207826101c1565b810181811067ffffffffffffffff82111715610226576102256101d1565b5b80604052505050565b5f6102386101a8565b905061024482826101fe565b919050565b5f67ffffffffffffffff821115610263576102626101d1565b5b61026c826101c1565b9050602081019050919050565b8281835e5f83830152505050565b5f61029961029484610249565b61022f565b9050828152602081018484840111156102b5576102b46101bd565b5b6102c0848285610279565b509392505050565b5f82601f8301126102dc576102db6101b9565b5b81516102ec848260208601610287565b91505092915050565b5f73ffffffffffffffffffffffffffffffffffffffff82169050919050565b5f61031e826102f5565b9050919050565b61032e81610314565b8114610338575f5ffd5b50565b5f8151905061034981610325565b92915050565b5f5f5f60608486031215610366576103656101b1565b5b5f84015167ffffffffffffffff811115610383576103826101b5565b5b61038f868287016102c8565b935050602084015167ffffffffffffffff8111156103b0576103af6101b5565b5b6103bc868287016102c8565b92505060406103cd8682870161033b565b9150509250925092565b5f81519050919050565b7f4e487b71000000000000000000000000000000000000000000000000000000005f52602260045260245ffd5b5f600282049050600182168061042557607f821691505b602082108103610438576104376103e1565b5b50919050565b5f819050815f5260205f209050919050565b5f6020601f8301049050919050565b5f82821b905092915050565b5f6008830261049a7fffffffffffffffffffffffffffffffffffffffffffffffffffffffffffffffff8261045f565b6104a4868361045f565b95508019841693508086168417925050509392505050565b5f819050919050565b5f819050919050565b5f6104e86104e36104de846104bc565b6104c5565b6104bc565b9050919050565b5f819050919050565b610501836104ce565b61051561050d826104ef565b84845461046b565b825550505050565b5f5f905090565b61052c61051d565b6105378184846104f8565b505050565b5b8181101561055a5761054f5f82610524565b60018101905061053d565b5050565b601f82111561059f576105708161043e565b61057984610450565b81016020851015610588578190505b61059c61059485610450565b83018261053c565b50505b505050565b5f82821c905092915050565b5f6105bf5f19846008026105a4565b1980831691505092915050565b5f6105d783836105b0565b9150826002028217905092915050565b6105f0826103d7565b67ffffffffffffffff811115610609576106086101d1565b5b610613825461040e565b61061e82828561055e565b5f60209050601f83116001811461064f575f841561063d578287015190505b61064785826105cc565b8655506106ae565b601f19841661065d8661043e565b5f5b828110156106845784890151825560018201915060208501945060208101905061065f565b868310156106a1578489015161069d601f8916826105b0565b8355505b6001600288020188555050505b505050505050565b6106bf81610314565b82525050565b5f6020820190506106d85f8301846106b6565b92915050565b613f7b806106eb5f395ff3fe6080604052600436106101d7575f3560e01c80636352211e1161010157806395d89b4111610094578063e985e9c511610063578063e985e9c514610697578063f2fde38b146106d3578063f51f74a9146106fb578063f8c4d22014610737576101d7565b806395d89b41146105e1578063a22cb4651461060b578063b88d4fde14610633578063c87b56dd1461065b576101d7565b80637ba95183116100d05780637ba951831461053d578063840a1ff4146105795780638456cb59146105a15780638da5cb5b146105b7576101d7565b80636352211e1461047357806369bcdb7d146104af57806370a08231146104eb578063715018a614610527576101d7565b8063246167bc1161017957806342842e0e1161014857806342842e0e146103a357806346181ede146103cb57806349ce8997146104075780635c975abb14610449576101d7565b8063246167bc146103115780633ccfd60b1461034d5780633ea66d23146103635780633f4ba83a1461038d576101d7565b8063095ea7b3116101b5578063095ea7b31461027d578063105f70c4146102a55780631f97a836146102c157806323b872dd146102e9576101d7565b806301ffc9a7146101db57806306fdde0314610217578063081812fc14610241575b5f5ffd5b3480156101e6575f5ffd5b5061020160048036038101906101fc919061301d565b610761565b60405161020e9190613062565b60405180910390f35b348015610222575f5ffd5b5061022b610772565b60405161023891906130eb565b60405180910390f35b34801561024c575f5ffd5b506102676004803603810190610262919061313e565b610801565b60405161027491906131a8565b60405180910390f35b348015610288575f5ffd5b506102a3600480360381019061029e91906131eb565b61081c565b005b6102bf60048036038101906102ba919061325c565b610832565b005b3480156102cc575f5ffd5b506102e760048036038101906102e291906132fb565b610db7565b005b3480156102f4575f5ffd5b5061030f600480360381019061030a9190613391565b6110f2565b005b34801561031c575f5ffd5b50610337600480360381019061033291906133e1565b6111f1565b6040516103449190613062565b60405180910390f35b348015610358575f5ffd5b5061036161120e565b005b34801561036e575f5ffd5b506103776112d6565b604051610384919061341b565b60405180910390f35b348015610398575f5ffd5b506103a16112dd565b005b3480156103ae575f5ffd5b506103c960048036038101906103c49190613391565b6112ef565b005b3480156103d6575f5ffd5b506103f160048036038101906103ec919061313e565b61130e565b6040516103fe9190613062565b60405180910390f35b348015610412575f5ffd5b5061042d6004803603810190610428919061313e565b61135a565b6040516104409796959493929190613443565b60405180910390f35b348015610454575f5ffd5b5061045d611468565b60405161046a9190613062565b60405180910390f35b34801561047e575f5ffd5b506104996004803603810190610494919061313e565b61147d565b6040516104a691906131a8565b60405180910390f35b3480156104ba575f5ffd5b506104d560048036038101906104d0919061313e565b61148e565b6040516104e291906135d4565b60405180910390f35b3480156104f6575f5ffd5b50610511600480360381019061050c91906135f4565b61162a565b60405161051e919061341b565b60405180910390f35b348015610532575f5ffd5b5061053b6116e0565b005b348015610548575f5ffd5b50610563600480360381019061055e919061313e565b6116f3565b6040516105709190613062565b60405180910390f35b348015610584575f5ffd5b5061059f600480360381019061059a919061313e565b61175b565b005b3480156105ac575f5ffd5b506105b561198d565b005b3480156105c2575f5ffd5b506105cb61199f565b6040516105d891906131a8565b60405180910390f35b3480156105ec575f5ffd5b506105f56119c7565b60405161060291906130eb565b60405180910390f35b348015610616575f5ffd5b50610631600480360381019061062c9190613649565b611a57565b005b34801561063e575f5ffd5b50610659600480360381019061065491906137af565b611a6d565b005b348015610666575f5ffd5b50610681600480360381019061067c919061313e565b611a92565b60405161068e91906130eb565b60405180910390f35b3480156106a2575f5ffd5b506106bd60048036038101906106b8919061382f565b611aa4565b6040516106ca9190613062565b60405180910390f35b3480156106de575f5ffd5b506106f960048036038101906106f491906135f4565b611b32565b005b348015610706575f5ffd5b50610721600480360381019061071c91906133e1565b611bb6565b60405161072e919061341b565b60405180910390f35b348015610742575f5ffd5b5061074b611bcb565b604051610758919061341b565b60405180910390f35b5f61076b82611bd0565b9050919050565b60605f80546107809061389a565b80601f01602080910402602001604051908101604052809291908181526020018280546107ac9061389a565b80156107f75780601f106107ce576101008083540402835291602001916107f7565b820191905f5260205f20905b8154815290600101906020018083116107da57829003601f168201915b5050505050905090565b5f61080b82611c30565b5061081582611cb6565b9050919050565b61082e8282610829611cef565b611cf6565b5050565b61083a611d08565b610842611d4e565b5f600a5f8381526020019081526020015f209050806005015f9054906101000a900460ff1661089d576040517fc06789fa00000000000000000000000000000000000000000000000000000000815260040160405180910390fd5b6201518081600401546108b091906138f7565b4211156108e9576040517f53adc96500000000000000000000000000000000000000000000000000000000815260040160405180910390fd5b603c81600401546108fa91906138f7565b421015610933576040517f8e12878600000000000000000000000000000000000000000000000000000000815260040160405180910390fd5b5f600284604051602001610947919061394a565b60405160208183030381529060405260405161096391906139a8565b602060405180830381855afa15801561097e573d5f5f3e3d5ffd5b5050506040513d601f19601f820116820180604052508101906109a191906139d2565b9050815f015481146109df576040517fabab6bd700000000000000000000000000000000000000000000000000000000815260040160405180910390fd5b600c5f8581526020019081526020015f205f9054906101000a900460ff1615610a34576040517f75dde69b00000000000000000000000000000000000000000000000000000000815260040160405180910390fd5b5f73ffffffffffffffffffffffffffffffffffffffff16826002015f9054906101000a900473ffffffffffffffffffffffffffffffffffffffff1673ffffffffffffffffffffffffffffffffffffffff1614158015610ae25750816002015f9054906101000a900473ffffffffffffffffffffffffffffffffffffffff1673ffffffffffffffffffffffffffffffffffffffff163373ffffffffffffffffffffffffffffffffffffffff1614155b15610b19576040517f5c427cd900000000000000000000000000000000000000000000000000000000815260040160405180910390fd5b81600301543414610b55576040517ebfc92100000000000000000000000000000000000000000000000000000000815260040160405180910390fd5b6001600c5f8681526020019081526020015f205f6101000a81548160ff0219169083151502179055505f826005015f6101000a81548160ff021916908315150217905550610ba33384611d8f565b610c3783836006018054610bb69061389a565b80601f0160208091040260200160405190810160405280929190818152602001828054610be29061389a565b8015610c2d5780601f10610c0457610100808354040283529160200191610c2d565b820191905f5260205f20905b815481529060010190602001808311610c1057829003601f168201915b5050505050611dac565b5f82600301541115610d07575f826001015f9054906101000a900473ffffffffffffffffffffffffffffffffffffffff1673ffffffffffffffffffffffffffffffffffffffff1634604051610c8b90613a20565b5f6040518083038185875af1925050503d805f8114610cc5576040519150601f19603f3d011682016040523d82523d5f602084013e610cca565b606091505b5050905080610d05576040517ff499da2000000000000000000000000000000000000000000000000000000000815260040160405180910390fd5b505b3373ffffffffffffffffffffffffffffffffffffffff16825f0154847f53cce42a2e12ca1881e0be33e212ae442b01e3d69a463385526709b5c19f75b287604051610d529190613a34565b60405180910390a43373ffffffffffffffffffffffffffffffffffffffff16837f2de9f0e1fedd37cbbccd525dcf7c5a1f070643498b277a8ca4bdc9969a3cc7d986604051610da19190613a34565b60405180910390a35050610db3611e06565b5050565b610dbf611d08565b610dc7611d4e565b5f5f1b8603610e02576040517fabab6bd700000000000000000000000000000000000000000000000000000000815260040160405180910390fd5b600a5f8681526020019081526020015f206005015f9054906101000a900460ff1615610e5a576040517fae99abde00000000000000000000000000000000000000000000000000000000815260040160405180910390fd5b5f600b5f8881526020019081526020015f205414610ea4576040517f3f73465400000000000000000000000000000000000000000000000000000000815260040160405180910390fd5b5f8282905003610ee0576040517fc06789fa00000000000000000000000000000000000000000000000000000000815260040160405180910390fd5b6040518060e001604052808781526020013373ffffffffffffffffffffffffffffffffffffffff1681526020018473ffffffffffffffffffffffffffffffffffffffff16815260200185815260200142815260200160011515815260200183838080601f0160208091040260200160405190810160405280939291908181526020018383808284375f81840152601f19601f82011690508083019250505050505050815250600a5f8781526020019081526020015f205f820151815f01556020820151816001015f6101000a81548173ffffffffffffffffffffffffffffffffffffffff021916908373ffffffffffffffffffffffffffffffffffffffff1602179055506040820151816002015f6101000a81548173ffffffffffffffffffffffffffffffffffffffff021916908373ffffffffffffffffffffffffffffffffffffffff160217905550606082015181600301556080820151816004015560a0820151816005015f6101000a81548160ff02191690831515021790555060c08201518160060190816110729190613bed565b5090505084600b5f8881526020019081526020015f20819055503373ffffffffffffffffffffffffffffffffffffffff1686867f42f5674af1e57a6fb397a4ec8f4c4ececb6fe62ffd33ee865e7da723d6513775868887876040516110da9493929190613ce8565b60405180910390a46110ea611e06565b505050505050565b5f73ffffffffffffffffffffffffffffffffffffffff168273ffffffffffffffffffffffffffffffffffffffff1603611162575f6040517f64a0ae9200000000000000000000000000000000000000000000000000000000815260040161115991906131a8565b60405180910390fd5b5f6111758383611170611cef565b611e10565b90508373ffffffffffffffffffffffffffffffffffffffff168173ffffffffffffffffffffffffffffffffffffffff16146111eb578382826040517f64283d7b0000000000000000000000000000000000000000000000000000000081526004016111e293929190613d26565b60405180910390fd5b50505050565b600c602052805f5260405f205f915054906101000a900460ff1681565b61121661201b565b5f4790505f8111156112d3575f61122b61199f565b73ffffffffffffffffffffffffffffffffffffffff168260405161124e90613a20565b5f6040518083038185875af1925050503d805f8114611288576040519150601f19603f3d011682016040523d82523d5f602084013e61128d565b606091505b50509050806112d1576040517f08c379a00000000000000000000000000000000000000000000000000000000081526004016112c890613da5565b60405180910390fd5b505b50565b6201518081565b6112e561201b565b6112ed6120a2565b565b61130983838360405180602001604052805f815250611a6d565b505050565b5f5f600a5f8481526020019081526020015f209050806005015f9054906101000a900460ff168015611352575062015180816004015461134e91906138f7565b4211155b915050919050565b600a602052805f5260405f205f91509050805f015490806001015f9054906101000a900473ffffffffffffffffffffffffffffffffffffffff1690806002015f9054906101000a900473ffffffffffffffffffffffffffffffffffffffff1690806003015490806004015490806005015f9054906101000a900460ff16908060060180546113e79061389a565b80601f01602080910402602001604051908101604052809291908181526020018280546114139061389a565b801561145e5780601f106114355761010080835404028352916020019161145e565b820191905f5260205f20905b81548152906001019060200180831161144157829003601f168201915b5050505050905087565b5f60095f9054906101000a900460ff16905090565b5f61148782611c30565b9050919050565b611496612efa565b600a5f8381526020019081526020015f206040518060e00160405290815f8201548152602001600182015f9054906101000a900473ffffffffffffffffffffffffffffffffffffffff1673ffffffffffffffffffffffffffffffffffffffff1673ffffffffffffffffffffffffffffffffffffffff168152602001600282015f9054906101000a900473ffffffffffffffffffffffffffffffffffffffff1673ffffffffffffffffffffffffffffffffffffffff1673ffffffffffffffffffffffffffffffffffffffff1681526020016003820154815260200160048201548152602001600582015f9054906101000a900460ff161515151581526020016006820180546115a39061389a565b80601f01602080910402602001604051908101604052809291908181526020018280546115cf9061389a565b801561161a5780601f106115f15761010080835404028352916020019161161a565b820191905f5260205f20905b8154815290600101906020018083116115fd57829003601f168201915b5050505050815250509050919050565b5f5f73ffffffffffffffffffffffffffffffffffffffff168273ffffffffffffffffffffffffffffffffffffffff160361169b575f6040517f89c62b6400000000000000000000000000000000000000000000000000000000815260040161169291906131a8565b60405180910390fd5b60035f8373ffffffffffffffffffffffffffffffffffffffff1673ffffffffffffffffffffffffffffffffffffffff1681526020019081526020015f20549050919050565b6116e861201b565b6116f15f612103565b565b5f5f600a5f8481526020019081526020015f209050806005015f9054906101000a900460ff1680156117355750603c816004015461173191906138f7565b4210155b8015611753575062015180816004015461174f91906138f7565b4211155b915050919050565b611763611d08565b5f600a5f8381526020019081526020015f209050806005015f9054906101000a900460ff166117be576040517fc06789fa00000000000000000000000000000000000000000000000000000000815260040160405180910390fd5b5f816001015f9054906101000a900473ffffffffffffffffffffffffffffffffffffffff1673ffffffffffffffffffffffffffffffffffffffff163373ffffffffffffffffffffffffffffffffffffffff16148061182d575062015180826004015461182a91906138f7565b42115b905080611866576040517f5c427cd900000000000000000000000000000000000000000000000000000000815260040160405180910390fd5b5f825f01549050600a5f8581526020019081526020015f205f5f82015f9055600182015f6101000a81549073ffffffffffffffffffffffffffffffffffffffff0219169055600282015f6101000a81549073ffffffffffffffffffffffffffffffffffffffff0219169055600382015f9055600482015f9055600582015f6101000a81549060ff0219169055600682015f6119019190612f5f565b5050600b5f8281526020019081526020015f205f9055826001015f9054906101000a900473ffffffffffffffffffffffffffffffffffffffff1673ffffffffffffffffffffffffffffffffffffffff1681857fdc84aeb3934ec4894c3ae246f0def84a92038ceb787afff9a4cddfa69f8ea13e60405160405180910390a450505061198a611e06565b50565b61199561201b565b61199d6121c6565b565b5f60075f9054906101000a900473ffffffffffffffffffffffffffffffffffffffff16905090565b6060600180546119d69061389a565b80601f0160208091040260200160405190810160405280929190818152602001828054611a029061389a565b8015611a4d5780601f10611a2457610100808354040283529160200191611a4d565b820191905f5260205f20905b815481529060010190602001808311611a3057829003601f168201915b5050505050905090565b611a69611a62611cef565b8383612228565b5050565b611a788484846110f2565b611a8c611a83611cef565b85858585612391565b50505050565b6060611a9d8261253d565b9050919050565b5f60055f8473ffffffffffffffffffffffffffffffffffffffff1673ffffffffffffffffffffffffffffffffffffffff1681526020019081526020015f205f8373ffffffffffffffffffffffffffffffffffffffff1673ffffffffffffffffffffffffffffffffffffffff1681526020019081526020015f205f9054906101000a900460ff16905092915050565b611b3a61201b565b5f73ffffffffffffffffffffffffffffffffffffffff168173ffffffffffffffffffffffffffffffffffffffff1603611baa575f6040517f1e4fbdf7000000000000000000000000000000000000000000000000000000008152600401611ba191906131a8565b60405180910390fd5b611bb381612103565b50565b600b602052805f5260405f205f915090505481565b603c81565b5f634906490660e01b7bffffffffffffffffffffffffffffffffffffffffffffffffffffffff1916827bffffffffffffffffffffffffffffffffffffffffffffffffffffffff19161480611c295750611c2882612648565b5b9050919050565b5f5f611c3b83612729565b90505f73ffffffffffffffffffffffffffffffffffffffff168173ffffffffffffffffffffffffffffffffffffffff1603611cad57826040517f7e273289000000000000000000000000000000000000000000000000000000008152600401611ca4919061341b565b60405180910390fd5b80915050919050565b5f60045f8381526020019081526020015f205f9054906101000a900473ffffffffffffffffffffffffffffffffffffffff169050919050565b5f33905090565b611d038383836001612762565b505050565b600260085403611d44576040517f3ee5aeb500000000000000000000000000000000000000000000000000000000815260040160405180910390fd5b6002600881905550565b611d56611468565b15611d8d576040517fd93c066500000000000000000000000000000000000000000000000000000000815260040160405180910390fd5b565b611da8828260405180602001604052805f815250612921565b5050565b8060065f8481526020019081526020015f209081611dca9190613bed565b507ff8e1a15aba9398e019f0b49df1a4fde98ee17ae345cb5f6b5e2c27f5033e8ce782604051611dfa919061341b565b60405180910390a15050565b6001600881905550565b5f5f611e1b84612729565b90505f73ffffffffffffffffffffffffffffffffffffffff168373ffffffffffffffffffffffffffffffffffffffff1614611e5c57611e5b818486612944565b5b5f73ffffffffffffffffffffffffffffffffffffffff168173ffffffffffffffffffffffffffffffffffffffff1614611ee757611e9b5f855f5f612762565b600160035f8373ffffffffffffffffffffffffffffffffffffffff1673ffffffffffffffffffffffffffffffffffffffff1681526020019081526020015f205f82825403925050819055505b5f73ffffffffffffffffffffffffffffffffffffffff168573ffffffffffffffffffffffffffffffffffffffff1614611f6657600160035f8773ffffffffffffffffffffffffffffffffffffffff1673ffffffffffffffffffffffffffffffffffffffff1681526020019081526020015f205f82825401925050819055505b8460025f8681526020019081526020015f205f6101000a81548173ffffffffffffffffffffffffffffffffffffffff021916908373ffffffffffffffffffffffffffffffffffffffff160217905550838573ffffffffffffffffffffffffffffffffffffffff168273ffffffffffffffffffffffffffffffffffffffff167fddf252ad1be2c89b69c2b068fc378daa952ba7f163c4a11628f55a4df523b3ef60405160405180910390a4809150509392505050565b612023611cef565b73ffffffffffffffffffffffffffffffffffffffff1661204161199f565b73ffffffffffffffffffffffffffffffffffffffff16146120a057612064611cef565b6040517f118cdaa700000000000000000000000000000000000000000000000000000000815260040161209791906131a8565b60405180910390fd5b565b6120aa612a07565b5f60095f6101000a81548160ff0219169083151502179055507f5db9ee0a495bf2e6ff9c91a7834c1ba4fdd244a5e8aa4e537bd38aeae4b073aa6120ec611cef565b6040516120f991906131a8565b60405180910390a1565b5f60075f9054906101000a900473ffffffffffffffffffffffffffffffffffffffff1690508160075f6101000a81548173ffffffffffffffffffffffffffffffffffffffff021916908373ffffffffffffffffffffffffffffffffffffffff1602179055508173ffffffffffffffffffffffffffffffffffffffff168173ffffffffffffffffffffffffffffffffffffffff167f8be0079c531659141344cd1fd0a4f28419497f9722a3daafe3b4186f6b6457e060405160405180910390a35050565b6121ce611d4e565b600160095f6101000a81548160ff0219169083151502179055507f62e78cea01bee320cd4e420270b5ea74000d11b0c9f74754ebdbfc544b05a258612211611cef565b60405161221e91906131a8565b60405180910390a1565b5f73ffffffffffffffffffffffffffffffffffffffff168273ffffffffffffffffffffffffffffffffffffffff160361229857816040517f5b08ba1800000000000000000000000000000000000000000000000000000000815260040161228f91906131a8565b60405180910390fd5b8060055f8573ffffffffffffffffffffffffffffffffffffffff1673ffffffffffffffffffffffffffffffffffffffff1681526020019081526020015f205f8473ffffffffffffffffffffffffffffffffffffffff1673ffffffffffffffffffffffffffffffffffffffff1681526020019081526020015f205f6101000a81548160ff0219169083151502179055508173ffffffffffffffffffffffffffffffffffffffff168373ffffffffffffffffffffffffffffffffffffffff167f17307eab39ab6107e8899845ad3d59bd9653f200f220920489ca2b5937696c31836040516123849190613062565b60405180910390a3505050565b5f8373ffffffffffffffffffffffffffffffffffffffff163b1115612536578273ffffffffffffffffffffffffffffffffffffffff1663150b7a02868685856040518563ffffffff1660e01b81526004016123ef9493929190613e0b565b6020604051808303815f875af192505050801561242a57506040513d601f19601f820116820180604052508101906124279190613e69565b60015b6124ab573d805f8114612458576040519150601f19603f3d011682016040523d82523d5f602084013e61245d565b606091505b505f8151036124a357836040517f64a0ae9200000000000000000000000000000000000000000000000000000000815260040161249a91906131a8565b60405180910390fd5b805160208201fd5b63150b7a0260e01b7bffffffffffffffffffffffffffffffffffffffffffffffffffffffff1916817bffffffffffffffffffffffffffffffffffffffffffffffffffffffff19161461253457836040517f64a0ae9200000000000000000000000000000000000000000000000000000000815260040161252b91906131a8565b60405180910390fd5b505b5050505050565b606061254882611c30565b505f60065f8481526020019081526020015f2080546125669061389a565b80601f01602080910402602001604051908101604052809291908181526020018280546125929061389a565b80156125dd5780601f106125b4576101008083540402835291602001916125dd565b820191905f5260205f20905b8154815290600101906020018083116125c057829003601f168201915b505050505090505f6125ed612a47565b90505f815103612601578192505050612643565b5f8251111561263557808260405160200161261d929190613ece565b60405160208183030381529060405292505050612643565b61263e84612a5d565b925050505b919050565b5f7f80ac58cd000000000000000000000000000000000000000000000000000000007bffffffffffffffffffffffffffffffffffffffffffffffffffffffff1916827bffffffffffffffffffffffffffffffffffffffffffffffffffffffff1916148061271257507f5b5e139f000000000000000000000000000000000000000000000000000000007bffffffffffffffffffffffffffffffffffffffffffffffffffffffff1916827bffffffffffffffffffffffffffffffffffffffffffffffffffffffff1916145b80612722575061272182612ac3565b5b9050919050565b5f60025f8381526020019081526020015f205f9054906101000a900473ffffffffffffffffffffffffffffffffffffffff169050919050565b808061279a57505f73ffffffffffffffffffffffffffffffffffffffff168273ffffffffffffffffffffffffffffffffffffffff1614155b156128cc575f6127a984611c30565b90505f73ffffffffffffffffffffffffffffffffffffffff168373ffffffffffffffffffffffffffffffffffffffff161415801561281357508273ffffffffffffffffffffffffffffffffffffffff168173ffffffffffffffffffffffffffffffffffffffff1614155b801561282657506128248184611aa4565b155b1561286857826040517fa9fbf51f00000000000000000000000000000000000000000000000000000000815260040161285f91906131a8565b60405180910390fd5b81156128ca57838573ffffffffffffffffffffffffffffffffffffffff168273ffffffffffffffffffffffffffffffffffffffff167f8c5be1e5ebec7d5bd14f71427d1e84f3dd0314c0f7b2291e5b200ac8c7c3b92560405160405180910390a45b505b8360045f8581526020019081526020015f205f6101000a81548173ffffffffffffffffffffffffffffffffffffffff021916908373ffffffffffffffffffffffffffffffffffffffff16021790555050505050565b61292b8383612b2c565b61293f612936611cef565b5f858585612391565b505050565b61294f838383612c1f565b612a02575f73ffffffffffffffffffffffffffffffffffffffff168373ffffffffffffffffffffffffffffffffffffffff16036129c357806040517f7e2732890000000000000000000000000000000000000000000000000000000081526004016129ba919061341b565b60405180910390fd5b81816040517f177e802f0000000000000000000000000000000000000000000000000000000081526004016129f9929190613ef1565b60405180910390fd5b505050565b612a0f611468565b612a45576040517f8dfc202b00000000000000000000000000000000000000000000000000000000815260040160405180910390fd5b565b606060405180602001604052805f815250905090565b6060612a6882611c30565b505f612a72612a47565b90505f815111612a905760405180602001604052805f815250612abb565b80612a9a84612cdf565b604051602001612aab929190613ece565b6040516020818303038152906040525b915050919050565b5f7f01ffc9a7000000000000000000000000000000000000000000000000000000007bffffffffffffffffffffffffffffffffffffffffffffffffffffffff1916827bffffffffffffffffffffffffffffffffffffffffffffffffffffffff1916149050919050565b5f73ffffffffffffffffffffffffffffffffffffffff168273ffffffffffffffffffffffffffffffffffffffff1603612b9c575f6040517f64a0ae92000000000000000000000000000000000000000000000000000000008152600401612b9391906131a8565b60405180910390fd5b5f612ba883835f611e10565b90505f73ffffffffffffffffffffffffffffffffffffffff168173ffffffffffffffffffffffffffffffffffffffff1614612c1a575f6040517f73c6ac6e000000000000000000000000000000000000000000000000000000008152600401612c1191906131a8565b60405180910390fd5b505050565b5f5f73ffffffffffffffffffffffffffffffffffffffff168373ffffffffffffffffffffffffffffffffffffffff1614158015612cd657508273ffffffffffffffffffffffffffffffffffffffff168473ffffffffffffffffffffffffffffffffffffffff161480612c975750612c968484611aa4565b5b80612cd557508273ffffffffffffffffffffffffffffffffffffffff16612cbd83611cb6565b73ffffffffffffffffffffffffffffffffffffffff16145b5b90509392505050565b60605f6001612ced84612da9565b0190505f8167ffffffffffffffff811115612d0b57612d0a61368b565b5b6040519080825280601f01601f191660200182016040528015612d3d5781602001600182028036833780820191505090505b5090505f82602083010190505b600115612d9e578080600190039150507f3031323334353637383961626364656600000000000000000000000000000000600a86061a8153600a8581612d9357612d92613f18565b5b0494505f8503612d4a575b819350505050919050565b5f5f5f90507a184f03e93ff9f4daa797ed6e38ed64bf6a1f0100000000000000008310612e05577a184f03e93ff9f4daa797ed6e38ed64bf6a1f0100000000000000008381612dfb57612dfa613f18565b5b0492506040810190505b6d04ee2d6d415b85acef81000000008310612e42576d04ee2d6d415b85acef81000000008381612e3857612e37613f18565b5b0492506020810190505b662386f26fc100008310612e7157662386f26fc100008381612e6757612e66613f18565b5b0492506010810190505b6305f5e1008310612e9a576305f5e1008381612e9057612e8f613f18565b5b0492506008810190505b6127108310612ebf576127108381612eb557612eb4613f18565b5b0492506004810190505b60648310612ee25760648381612ed857612ed7613f18565b5b0492506002810190505b600a8310612ef1576001810190505b80915050919050565b6040518060e001604052805f81526020015f73ffffffffffffffffffffffffffffffffffffffff1681526020015f73ffffffffffffffffffffffffffffffffffffffff1681526020015f81526020015f81526020015f15158152602001606081525090565b508054612f6b9061389a565b5f825580601f10612f7c5750612f99565b601f0160209004905f5260205f2090810190612f989190612f9c565b5b50565b5b80821115612fb3575f815f905550600101612f9d565b5090565b5f604051905090565b5f5ffd5b5f5ffd5b5f7fffffffff0000000000000000000000000000000000000000000000000000000082169050919050565b612ffc81612fc8565b8114613006575f5ffd5b50565b5f8135905061301781612ff3565b92915050565b5f6020828403121561303257613031612fc0565b5b5f61303f84828501613009565b91505092915050565b5f8115159050919050565b61305c81613048565b82525050565b5f6020820190506130755f830184613053565b92915050565b5f81519050919050565b5f82825260208201905092915050565b8281835e5f83830152505050565b5f601f19601f8301169050919050565b5f6130bd8261307b565b6130c78185613085565b93506130d7818560208601613095565b6130e0816130a3565b840191505092915050565b5f6020820190508181035f83015261310381846130b3565b905092915050565b5f819050919050565b61311d8161310b565b8114613127575f5ffd5b50565b5f8135905061313881613114565b92915050565b5f6020828403121561315357613152612fc0565b5b5f6131608482850161312a565b91505092915050565b5f73ffffffffffffffffffffffffffffffffffffffff82169050919050565b5f61319282613169565b9050919050565b6131a281613188565b82525050565b5f6020820190506131bb5f830184613199565b92915050565b6131ca81613188565b81146131d4575f5ffd5b50565b5f813590506131e5816131c1565b92915050565b5f5f6040838503121561320157613200612fc0565b5b5f61320e858286016131d7565b925050602061321f8582860161312a565b9150509250929050565b5f819050919050565b61323b81613229565b8114613245575f5ffd5b50565b5f8135905061325681613232565b92915050565b5f5f6040838503121561327257613271612fc0565b5b5f61327f85828601613248565b92505060206132908582860161312a565b9150509250929050565b5f5ffd5b5f5ffd5b5f5ffd5b5f5f83601f8401126132bb576132ba61329a565b5b8235905067ffffffffffffffff8111156132d8576132d761329e565b5b6020830191508360018202830111156132f4576132f36132a2565b5b9250929050565b5f5f5f5f5f5f60a0878903121561331557613314612fc0565b5b5f61332289828a01613248565b965050602061333389828a0161312a565b955050604061334489828a0161312a565b945050606061335589828a016131d7565b935050608087013567ffffffffffffffff81111561337657613375612fc4565b5b61338289828a016132a6565b92509250509295509295509295565b5f5f5f606084860312156133a8576133a7612fc0565b5b5f6133b5868287016131d7565b93505060206133c6868287016131d7565b92505060406133d78682870161312a565b9150509250925092565b5f602082840312156133f6576133f5612fc0565b5b5f61340384828501613248565b91505092915050565b6134158161310b565b82525050565b5f60208201905061342e5f83018461340c565b92915050565b61343d81613229565b82525050565b5f60e0820190506134565f83018a613434565b6134636020830189613199565b6134706040830188613199565b61347d606083018761340c565b61348a608083018661340c565b61349760a0830185613053565b81810360c08301526134a981846130b3565b905098975050505050505050565b6134c081613229565b82525050565b6134cf81613188565b82525050565b6134de8161310b565b82525050565b6134ed81613048565b82525050565b5f82825260208201905092915050565b5f61350d8261307b565b61351781856134f3565b9350613527818560208601613095565b613530816130a3565b840191505092915050565b5f60e083015f8301516135505f8601826134b7565b50602083015161356360208601826134c6565b50604083015161357660408601826134c6565b50606083015161358960608601826134d5565b50608083015161359c60808601826134d5565b5060a08301516135af60a08601826134e4565b5060c083015184820360c08601526135c78282613503565b9150508091505092915050565b5f6020820190508181035f8301526135ec818461353b565b905092915050565b5f6020828403121561360957613608612fc0565b5b5f613616848285016131d7565b91505092915050565b61362881613048565b8114613632575f5ffd5b50565b5f813590506136438161361f565b92915050565b5f5f6040838503121561365f5761365e612fc0565b5b5f61366c858286016131d7565b925050602061367d85828601613635565b9150509250929050565b5f5ffd5b7f4e487b71000000000000000000000000000000000000000000000000000000005f52604160045260245ffd5b6136c1826130a3565b810181811067ffffffffffffffff821117156136e0576136df61368b565b5b80604052505050565b5f6136f2612fb7565b90506136fe82826136b8565b919050565b5f67ffffffffffffffff82111561371d5761371c61368b565b5b613726826130a3565b9050602081019050919050565b828183375f83830152505050565b5f61375361374e84613703565b6136e9565b90508281526020810184848401111561376f5761376e613687565b5b61377a848285613733565b509392505050565b5f82601f8301126137965761379561329a565b5b81356137a6848260208601613741565b91505092915050565b5f5f5f5f608085870312156137c7576137c6612fc0565b5b5f6137d4878288016131d7565b94505060206137e5878288016131d7565b93505060406137f68782880161312a565b925050606085013567ffffffffffffffff81111561381757613816612fc4565b5b61382387828801613782565b91505092959194509250565b5f5f6040838503121561384557613844612fc0565b5b5f613852858286016131d7565b9250506020613863858286016131d7565b9150509250929050565b7f4e487b71000000000000000000000000000000000000000000000000000000005f52602260045260245ffd5b5f60028204905060018216806138b157607f821691505b6020821081036138c4576138c361386d565b5b50919050565b7f4e487b71000000000000000000000000000000000000000000000000000000005f52601160045260245ffd5b5f6139018261310b565b915061390c8361310b565b9250828201905080821115613924576139236138ca565b5b92915050565b5f819050919050565b61394461393f82613229565b61392a565b82525050565b5f6139558284613933565b60208201915081905092915050565b5f81519050919050565b5f81905092915050565b5f61398282613964565b61398c818561396e565b935061399c818560208601613095565b80840191505092915050565b5f6139b38284613978565b915081905092915050565b5f815190506139cc81613232565b92915050565b5f602082840312156139e7576139e6612fc0565b5b5f6139f4848285016139be565b91505092915050565b50565b5f613a0b5f8361396e565b9150613a16826139fd565b5f82019050919050565b5f613a2a82613a00565b9150819050919050565b5f602082019050613a475f830184613434565b92915050565b5f819050815f5260205f209050919050565b5f6020601f8301049050919050565b5f82821b905092915050565b5f60088302613aa97fffffffffffffffffffffffffffffffffffffffffffffffffffffffffffffffff82613a6e565b613ab38683613a6e565b95508019841693508086168417925050509392505050565b5f819050919050565b5f613aee613ae9613ae48461310b565b613acb565b61310b565b9050919050565b5f819050919050565b613b0783613ad4565b613b1b613b1382613af5565b848454613a7a565b825550505050565b5f5f905090565b613b32613b23565b613b3d818484613afe565b505050565b5b81811015613b6057613b555f82613b2a565b600181019050613b43565b5050565b601f821115613ba557613b7681613a4d565b613b7f84613a5f565b81016020851015613b8e578190505b613ba2613b9a85613a5f565b830182613b42565b50505b505050565b5f82821c905092915050565b5f613bc55f1984600802613baa565b1980831691505092915050565b5f613bdd8383613bb6565b9150826002028217905092915050565b613bf68261307b565b67ffffffffffffffff811115613c0f57613c0e61368b565b5b613c19825461389a565b613c24828285613b64565b5f60209050601f831160018114613c55575f8415613c43578287015190505b613c4d8582613bd2565b865550613cb4565b601f198416613c6386613a4d565b5f5b82811015613c8a57848901518255600182019150602085019450602081019050613c65565b86831015613ca75784890151613ca3601f891682613bb6565b8355505b6001600288020188555050505b505050505050565b5f613cc78385613085565b9350613cd4838584613733565b613cdd836130a3565b840190509392505050565b5f606082019050613cfb5f830187613199565b613d08602083018661340c565b8181036040830152613d1b818486613cbc565b905095945050505050565b5f606082019050613d395f830186613199565b613d46602083018561340c565b613d536040830184613199565b949350505050565b7f5769746864726177616c206661696c65640000000000000000000000000000005f82015250565b5f613d8f601183613085565b9150613d9a82613d5b565b602082019050919050565b5f6020820190508181035f830152613dbc81613d83565b9050919050565b5f82825260208201905092915050565b5f613ddd82613964565b613de78185613dc3565b9350613df7818560208601613095565b613e00816130a3565b840191505092915050565b5f608082019050613e1e5f830187613199565b613e2b6020830186613199565b613e38604083018561340c565b8181036060830152613e4a8184613dd3565b905095945050505050565b5f81519050613e6381612ff3565b92915050565b5f60208284031215613e7e57613e7d612fc0565b5b5f613e8b84828501613e55565b91505092915050565b5f81905092915050565b5f613ea88261307b565b613eb28185613e94565b9350613ec2818560208601613095565b80840191505092915050565b5f613ed98285613e9e565b9150613ee58284613e9e565b91508190509392505050565b5f604082019050613f045f830185613199565b613f11602083018461340c565b9392505050565b7f4e487b71000000000000000000000000000000000000000000000000000000005f52601260045260245ffdfea264697066735822122018bd727683268c5cc94afd08361dc029065976a6a6a5d76360f0d0ea70c533f264736f6c634300081c0033",
  "linkReferences": {},
  "deployedLinkReferences": {},
  "immutableReferences": {},
  "inputSourceName": "project/contracts/NFTSecretMint.sol",
  "buildInfoId": "solc-0_8_28-9206c375b007083a73ccea9100209fecc51da7cb"
}